:020000040800F2
:10000000000008247192000885170008871700086F
:10001000891700088B1700088D17000800000000E2
:10002000000000000000000000000000C192000875
:100030008F17000800000000C1920008C19200085C
:10004000C1920008C1920008C1920008C192000844
:10005000C1920008C1920008C1920008C192000834
:10006000C1920008C1920008C1920008C192000824
:10007000C1920008C1920008C1920008C192000814
:10008000C1920008C1920008C192000891170008AF
:10009000C1920008C1920008C1920008C1920008F4
:1000A000C1920008A1170008C1920008C19200087F
:1000B000B1170008D9170008C1920008C1920008C2
:1000C000C1920008C1920008C1920008C1920008C4
:1000D000C1920008C1920008C1920008E917000807
:1000E000C1920008C192000800000000C1920008FF
:1000F000C1920008C1920008C1920008C192000894
:10010000C1920008C1920008C1920008C192000883
:10011000C1920008C1920008C1920008C192000873
:10012000C1920008C1920008C1920008C192000863
:10013000C1920008C1920008C1920008C192000853
:1001400000000000000000000000000000000000AF
:10015000C1920008C1920008C1920008C192000833
:10016000C1920008C1920008C1920008C192000823
:10017000C1920008C1920008C1920008000000006E
:10018000C1920008C1920008C1920008C192000803
:10019000C1920008C1920008C1920008C1920008F3
:1001A000C1920008C1920008C1920008C1920008E3
:1001B000C1920008C1920008C1920008C1920008D3
:1001C000C1920008C1920008C1920008C1920008C3
:1001D000C1920008C1920008C1920008C1920008B3
:1001E000C1920008C1920008C1920008C1920008A3
:1001F000C1920008C1920008C1920008C192000893
:10020000C1920008C1920008C1920008C192000882
:10021000C1920008C1920008C1920008C192000872
:10022000C1920008C1920008C192000800000000BD
:10023000C1920008C192000800000000C1920008AD
:10024000C1920008C1920008C1920008C192000842
:10025000C1920008C1920008C1920008C192000832
:10026000C1920008C1920008C1920008C192000822
:10027000C1920008C1920008C1920008000000006D
:10028000C1920008C1920008C1920008000000005D
:0802900000000000C19200080B
:1002A00010B5054C237833B9044B13B10448AFF3B0
:1002B00000800123237010BD7400002400000000A2
:1002C0004C9E000808B5034B1BB103490348AFF32C
:1002D000008008BD00000000780000244C9E00084B
:1002E000034613F8012B002AFBD1181A0138704776
:1002F00001F0FF01102A2BDB10F0070F08D010F8D7
:10030000013B013A8B422DD010F0070F42B3F6D1DA
:10031000F0B441EA012141EA014122F007047FF0F3
:1003200000070023F0E80256083C85EA010586EA4A
:10033000010685FA47F5A3FA87F586FA47F6A5FA86
:1003400087F68EB9EED1F0BC01F0FF0102F0070292
:1003500032B110F8013B013A83EA010313B1F8D13D
:100360000020704701387047002D06BF354603381E
:10037000073815F0010F07D1013015F4807F02BF57
:10038000013015F4C03F0130F0BC0138704700BFA8
:1003900053B94AB9002908BF00281CBF4FF0FF31EC
:1003A0004FF0FF3000F074B9ADF1080C6DE904CEE8
:1003B00000F006F8DDF804E0DDE9022304B0704740
:1003C0002DE9F047089D04468E46002B4DD18A4208
:1003D000944669D9B2FA82F252B101FA02F3C2F13B
:1003E000200120FA01F10CFA02FC41EA030E9440CC
:1003F0004FEA1C48210CBEFBF8F61FFA8CF708FBED
:1004000016E341EA034306FB07F199420AD91CEBC4
:10041000030306F1FF3080F01F81994240F21C81F6
:10042000023E63445B1AA4B2B3FBF8F008FB10333E
:1004300044EA034400FB07F7A7420AD91CEB040473
:1004400000F1FF3380F00A81A74240F20781644443
:10045000023840EA0640E41B00261DB1D4400023C8
:10046000C5E900433146BDE8F0878B4209D9002D2C
:1004700000F0EF800026C5E9000130463146BDE8B6
:10048000F087B3FA83F6002E4AD18B4202D3824220
:1004900000F2F980841A61EB030301209E46002DCF
:1004A000E0D0C5E9004EDDE702B9FFDEB2FA82F224
:1004B000002A40F09280A1EB0C014FEA1C471FFA82
:1004C0008CFE0126200CB1FBF7F307FB131140EA69
:1004D00001410EFB03F0884208D91CEB010103F136
:1004E000FF3802D2884200F2CB804346091AA4B2F8
:1004F000B1FBF7F007FB101144EA01440EFB00FECC
:10050000A64508D91CEB040400F1FF3102D2A64530
:1005100000F2BB800846A4EB0E0440EA03409CE7CF
:10052000C6F12007B34022FA07FC4CEA030C20FA7C
:1005300007F401FA06F31C43F9404FEA1C4900FA9C
:1005400006F3B1FBF9F8200C1FFA8CFE09FB181119
:1005500040EA014108FB0EF0884202FA06F20BD98C
:100560001CEB010108F1FF3A80F08880884240F2DC
:100570008580A8F102086144091AA4B2B1FBF9F020
:1005800009FB101144EA014100FB0EFE8E4508D91B
:100590001CEB010100F1FF346CD28E456AD90238A0
:1005A000614440EA0840A0FB0294A1EB0E01A14285
:1005B000C846A64656D353D05DB1B3EB080261EBF3
:1005C0000E0101FA07F722FA06F3F1401F43C5E9CD
:1005D000007100263146BDE8F087C2F12003D84003
:1005E0000CFA02FC21FA03F3914001434FEA1C4745
:1005F0001FFA8CFEB3FBF7F007FB10360B0C43EA37
:10060000064300FB0EF69E4204FA02F408D91CEBE6
:10061000030300F1FF382FD29E422DD902386344E4
:100620009B1B89B2B3FBF7F607FB163341EA034184
:1006300006FB0EF38B4208D91CEB010106F1FF38D3
:1006400016D28B4214D9023E6144C91A46EA0046CA
:1006500038E72E46284605E70646E3E61846F8E65C
:100660004B45A9D2B9EB020864EB0C0E0138A3E7A5
:100670004646EAE7204694E74046D1E7D0467BE786
:10068000023B614432E7304609E76444023842E7FE
:10069000704700BF2DE9F0418EB0002509950A95FD
:1006A0000B950C950D955B4CD4F8E03043F00103AD
:1006B000C4F8E030D4F8E03003F001030193019B6B
:1006C000D4F8E03043F00203C4F8E030D4F8E0306E
:1006D00003F002030293029BD4F8E03043F00403DA
:1006E000C4F8E030D4F8E03003F004030393039B34
:1006F000D4F8E03043F00803C4F8E030D4F8E03038
:1007000003F008030493049BD4F8E03043F0100393
:10071000C4F8E030D4F8E03003F010030593059BF3
:10072000D4F8E03043F02003C4F8E030D4F8E030EF
:1007300003F020030693069BD4F8E03043F08003D7
:10074000C4F8E030D4F8E03003F080030793079B4F
:10075000DFF8D48001224FF40C41404603F0E2FF61
:100760002D4F012241F6F871384603F0DBFF4FF4BC
:10077000C16309930A950B9509A9284803F002FE65
:100780004FF4035309930A950B9509A9244803F0E4
:10079000F9FD5F2309930A950B9509A9404603F0DB
:1007A000F1FD4FF40C43099301260A960B950C9525
:1007B00009A9404603F0E6FD4CF2030309930A95AC
:1007C0000B9509A9384603F0DDFD41F6F87309934E
:1007D0000A960B950C9509A9384603F0D3FDD4F879
:1007E000E83043F40033C4F8E830D4F8E83003F4D8
:1007F00000330893089B6023099302230A930B9606
:100800000C9307230D9309A9064803F0BBFD0EB016
:10081000BDE8F0810044025800140258000002585C
:1008200000040258000C02580010025838B5044663
:100830001AE0642BFDD01B490B881BB214F8010B86
:10084000194AD0540A8812B20132184880FB02308B
:10085000D317C3EB6013642000FB13231BB20B8080
:10086000134B1B7863B129464D1EA9B10D4B1B8854
:100870001BB2104A128812B29B1ADAD56433D8E739
:1008800001220B4B1A700B4B1988074B03FA81F1AD
:10089000094807F0B1F9E6E74FF4FA7004F022F9DD
:1008A00038BD00BF90010024200100241F85EB51BA
:1008B0008C0100248E010024840400240EB410B5A1
:1008C00083B010F4004F03D10A4B1B6818420BD0C1
:1008D00006AB0193084C059A5021204608F030FEE3
:1008E00001462046FFF7A2FF03B0BDE8104003B069
:1008F000704700BF900000249401002408B50D4902
:100900000A8812B201320C4BA3FB02C35B094FF001
:10091000640C0CFB13231BB20B80D0F88430202B0B
:1009200000D008BD09880122044B03FA81F107F0C9
:10093000BBF9F6E78A0100241F85EB51BC000024B7
:1009400008B511490A8812B20132104BA3FB020309
:100950005B09642000FB13231BB20B800A8812B2D0
:100960000B4B1B881BB29A4203D10A4B00221A7010
:1009700008BD054B19880122074B03FA81F107488E
:1009800007F03AF9F4E700BF8E0100241F85EB5110
:10099000900100248C010024200100248404002400
:1009A00008B503460A4603494FF40040FFF786FFA7
:1009B00008BD00BFB89E000808B503494FF40040C9
:1009C000FFF77CFF08BD00BFD89E000800B583B0CC
:1009D000204BD3F8E82042F48022C3F8E820D3F873
:1009E000E83003F480230193019B1B481B4B0360F9
:1009F0004FF4E133436000238360C36003610C2242
:100A000042618361C36103624362836208F030F92B
:100A100098B90021104808F043FA88B900210E481F
:100A200008F0AAFA78B90C4808F0F0F970B9272054
:100A300001F0BEF903B05DF804FBFFF7BDFFE8E786
:100A4000FFF7BAFFEAE7FFF7B7FFECE7FFF7B4FFFE
:100A5000EDE700BF00440258840400240048004031
:100A600000B58DB026494FF48070FFF727FF254869
:100A70004FF080430360EF234360002383606FF0F7
:100A80004042C2600361836105F090FD40BB0023DA
:100A9000089309930A930B934FF48053089308A982
:100AA000184806F0F3FAF0B9164805F0BBFEE8B9AD
:100AB000002305930693079305A9124806F00EFF3D
:100AC000B8B9002201920292039204920123029388
:100AD00001A90C4806F0AAF970B90DB05DF804FB45
:100AE000FFF76AFFD3E7FFF767FFDDE7FFF764FF74
:100AF000DEE7FFF761FFE4E7FFF75EFFEDE700BF2A
:100B0000E89E0008A003002410B58EB037494FF4CA
:100B10008070FFF7D3FE3648364B036041F27073A6
:100B20004360002383604FF4FA62C2600361836113
:100B300005F03CFD002843D100230A930B930C934E
:100B40000D934FF480530A930AA9294806F09EFAA0
:100B5000002838D1264805F0C7FD002836D10023EB
:100B600007930893099307A9214806F0B7FE0028C8
:100B70002FD10022009201920292039204920592D8
:100B80000692602300936946194805F061FF18BB7F
:100B900004226946164805F05BFF00BB082269463F
:100BA000134805F055FFE8B9114C204600F050FFFE
:100BB000E3685B080F4A53639363D3630EB010BDC1
:100BC000FFF7FAFEB8E7FFF7F7FEC3E7FFF7F4FE1B
:100BD000C5E7FFF7F1FECCE7FFF7EEFED8E7FFF73A
:100BE000EBFEDBE7FFF7E8FEDEE700BFF89E00085C
:100BF000EC0300240004004000B58DB025494FF4FB
:100C00008070FFF75BFE2448244B036000234360A1
:100C100083604FF6FF72C26003614361836105F038
:100C2000C5FC40BB0023089309930A930B934FF430
:100C30008053089308A9184806F028FAF0B9164816
:100C400005F0F0FDE8B9002305930693079305A985
:100C5000114806F043FEB8B90022019202920392B5
:100C600004920123029301A90B4806F0DFF870B942
:100C70000DB05DF804FBFFF79FFED3E7FFF79CFE86
:100C8000DDE7FFF799FEDEE7FFF796FEE4E7FFF703
:100C900093FEEDE7089F0008540300240040014044
:100CA00010B588B036494FF48070FFF707FE35481D
:100CB000354B03604FF4807383600023C36003747B
:100CC00001224274437483740221416182611624BB
:100CD000C461016241628262C462016343638263F0
:100CE000C3630264042141648264C1640265416596
:100CF0008365C36502664366816604F003F868BBDA
:100D00004FF08043009300230193022202920122BC
:100D1000039204936FF0704305936946194804F0F9
:100D200073FBF0B919494FF48070FFF7C7FD154CFC
:100D300000220421204604F071FD002201212046FA
:100D400004F06CFD80B912494FF48070FFF7B6FDD6
:100D50000C4804F01FFC50B908B010BDFFF72CFE82
:100D6000CEE7FFF729FEDDE7FFF726FEEBE70949AF
:100D70004FF48070FFF7A2FDFFF71EFEECE700BF07
:100D8000189F00086802002400A000402C9F000863
:100D9000589F0008689F000810B58EB032494FF484
:100DA0008070FFF78BFD3148314B036003234360B4
:100DB0002023836042F21073C360002303618361C8
:100DC00005F0F4FB002840D100230A930B930C9309
:100DD0000D934FF480530A930AA9244806F056F95C
:100DE000002835D1214805F07FFC002833D10023AD
:100DF00007930893099307A91C4806F06FFD68BB89
:100E000000220092019202920392049205920692AD
:100E1000602300936946154805F01AFE08BB134C81
:100E2000204600F015FEE3685B08114A5363002179
:100E3000204606F0F1FB0421204606F0EDFB0821D8
:100E4000204606F0E9FB0EB010BDFFF7B5FDBBE78D
:100E5000FFF7B2FDC6E7FFF7AFFDC8E7FFF7ACFD50
:100E6000CEE7FFF7A9FDDAE77C9F000838040024ED
:100E70000008004038B50F4B984200D038BD0446FA
:100E800004F0EAFE054602460B494FF40040FFF726
:100E900015FD15F0006F03D02268136D2B43136509
:100EA00015F0040FEAD005494FF40040FFF706FDA6
:100EB000E4E700BF680200248C9F0008AC9F000894
:100EC00008B503494FF48070FFF7F8FC08BD00BF78
:100ED000CC9F000808B503494FF48070FFF7EEFC83
:100EE00008BD00BFF49F000808B503494FF48070A7
:100EF000FFF7E4FC08BD00BF14A0000808B50349D3
:100F00004FF48070FFF7DAFC08BD00BF38A000087E
:100F100070B586B0652809D8044660B36425B5FB72
:100F2000F0F540F28F2303FB05F501E00024254690
:100F30002B46224623494FF48070FFF7BFFCA31EC7
:100F4000632B02D9204B1B68BBB9012C11D91E4B56
:100F50001B68002B32D01D4B1A6842F001021A6048
:100F60006A085A63DD621A4805F0B0F8164B012290
:100F70001A6006B070BD0546DAE7144A136823F01C
:100F800001031360124805F001F900240194029452
:100F90000394049405944FF4805601960123029320
:100FA00003930C4D01A9284603F0ECF92246314683
:100FB000284603F0B7FB044B1C60DAE7FFF7ECFEB2
:100FC000C9E700BF58A000088401002400080040C1
:100FD00038040024000C0258F8B50446FFF780F9E5
:100FE000054623460246A3494FF48060FFF766FC9E
:100FF000062D1DD9A71D02229F49384608F0D4F9B5
:1010000078B14FF0FF3603229C49384608F0CCF9FE
:10101000074678B99A494FF48060FFF74FFC3E4687
:1010200008E098494FF48060FFF748FC0126EAE7A2
:101030004FF0FF36032D13D92279934BD35C13F075
:10104000040F02D14FF0FF350CE0201D08F039F9F4
:10105000054602468D494FF48060FFF72FFC01E002
:101060004FF0FF3503228A49204608F09DF90028F9
:101070004AD003228749204608F096F958B9B6F1BC
:10108000FF3F08D0002E00F0A58001224FF48061C0
:10109000814803F047FB03228049204608F084F989
:1010A00058B9B6F1FF3F08D0002E00F09A80012217
:1010B0004FF40061784803F035FB0322784920465D
:1010C00008F072F918B9B5F1FF3F40F091800322A2
:1010D0007449204608F068F918B9B5F1FF3F40F0AF
:1010E000AF8003227049204608F05EF9002800F026
:1010F000B08003226D49204608F056F918B9B5F1C1
:10110000FF3F40F0AD80F8BD33462A4668494FF4B2
:101110000040FFF7D3FB6B1E052B54D8DFE803F02C
:1011200003101D2A37442EB101220821614803F023
:10113000F9FA9EE7002208215E4803F0F3FA98E7E7
:101140002EB1012210215B4803F0ECFA91E7002256
:101150001021584803F0E6FA8BE72EB10122202136
:10116000544803F0DFFA84E700222021514803F0BD
:10117000D9FA7EE72EB1012240214E4803F0D2FA7F
:1011800077E7002240214B4803F0CCFA71E72EB1FB
:1011900001228021474803F0C5FA6AE70022802136
:1011A000444803F0BFFA64E736B101224FF480717E
:1011B000404803F0B7FA5CE700224FF480713D48E5
:1011C00003F0B0FA55E72A463B494FF40040FFF7D9
:1011D00075FB4EE700224FF480612F4803F0A2FA1E
:1011E00059E700224FF400612B4803F09BFA64E7B3
:1011F00032494FF40040FFF761FB012D0AD0022D68
:101200007FF465AFAEB101224FF40071294803F0BD
:1012100089FA5CE736B101224FF40071254803F0EA
:1012200081FA54E700224FF40071224803F07AFA61
:101230004DE700224FF400711E4803F073FA46E7B1
:101240001F4B1D602A461F494FF40040FFF736FB35
:1012500047E70A221C494FF40040FFF72FFB48E7FD
:101260002A4618494FF40040FFF728FB2846FFF7AD
:101270004FFE48E774A0000880A0000890A0000876
:1012800094A0000884A000080AA90008A0A00008F3
:10129000ACA00008D0A0000800100258D4A000089C
:1012A000D8A00008E4A00008F4A000080CA10008E1
:1012B000B0A0000800140258BCA00008DCA0000880
:1012C00090000024E8A00008F8A00008274B1A8826
:1012D00012B2274B1B881BB29A4246D070B52549E3
:1012E0004FF48060FFF7EAFA0EE0234D2A68234CA2
:1012F0000026A654234622494FF48060FFF7DEFA09
:101300002046FFF769FE2E60184B1A8812B2184B60
:101310001B881BB29A4227D014490B881BB216486F
:101320000268541C04601748C45C144B9C540A881F
:1013300012B20132144BA3FB02035B09642000FBD1
:1013400013231BB20B80224610494FF48060FFF735
:10135000B5FA0D2C18BF0A2CC7D03D2CC5D0064BB2
:101360001B687F2BD0D1C0E770BD70478801002477
:101370008A01002410A10008E4010024E8010024EF
:1013800020A10008BC0000241F85EB5118A1000813
:1013900030B59BB005460C460A461F494FF4007015
:1013A000FFF78CFA14F0010F01D11BB030BD01AB77
:1013B0001A4A4021284604F007F9B8B9174C2268A8
:1013C00017494FF40070FFF779FA2368C3F30F232E
:1013D0004FF6F16293420CD000220121284604F01E
:1013E0001DFA0028E1D0FFF7E7FADEE7FFF7E4FA9D
:1013F000E4E74FF480510B4803F0B0F99DF8063054
:101400009DF8054004EB032424122046FFF780FDDD
:10141000204607F009FFDFE730A100089400002410
:1014200050A100080014025800B5CDB0022003F00E
:10143000E3FA00230193344B9A6942F440429A61E3
:101440009B6903F440430193304BDA6A42F0010296
:10145000DA62DB6A03F001030193019B2A4B9B696B
:1014600013F4005FFAD04C22002139A807F060FF86
:10147000012339934FF480333A93022342934393E9
:1014800005224492C02245924693479348930823ED
:10149000499339A800F0A4FC60BB2022002131A8A8
:1014A00007F046FF3F2331930323329308233493FD
:1014B0004023359336934FF480623792389304215A
:1014C00031A801F067F9C0B9BC22002102A807F0D9
:1014D0002FFF02A802F066FC48F2030302930023E8
:1014E0001D931F93209302A801F0E2FD40B94DB077
:1014F0005DF804FBFFF760FACFE7FFF75DFAE3E77B
:10150000FFF75AFAF3E700BF0048025800040058FA
:1015100070B582B04D4B0022C3F88420BFF34F8FCB
:10152000D3F88040C4F34E3000E01846C4F3C9023B
:1015300043F6E07303EA401343EA82734349C1F878
:1015400060321346013A002BF2D1431E0028ECD141
:10155000BFF34F8F4B6943F480334B61BFF34F8F21
:10156000BFF36F8F03F07EFAFFF75EFFFFF792F88D
:10157000FFF72CFAFFF774FAFFF7C6FAFFF73CFB08
:10158000FFF78EFB324B4FF403421A6007F0CAFD9F
:10159000304B5A6942F008025A615A6942F010020F
:1015A0005A615A6942F020025A615A6942F0400277
:1015B0005A615A6942F080025A615A6942F4807253
:1015C0005A610A2224494FF40040FFF777F9234B70
:1015D00019880122224B03FA81F1224806F064FBAC
:1015E00040B903F079FA00F5FA760020FFF790FC95
:1015F000002507E01C494FF40040FFF75FF9F0E7D2
:10160000FFF764FE07F0B2FD03F066FA0446864277
:10161000F6D200F5FA764FF400610E4803F09EF81A
:101620000135124A82FB0532EB17C3EB620303EB71
:1016300083039D42E4D107F0F1FD009023462A4642
:101640000B494FF40040FFF739F9D9E700ED00E00E
:101650009000002400140258F8A00008880100241B
:10166000BC0000248404002458A100086766666654
:1016700070A1000810B504460268074B9A4204D0D6
:101680002268064B9A4203D010BD03F019FAF7E71F
:10169000032003F027FAF7E70000014000040040B0
:1016A00038B503685B6B2E4802682E4941F822303A
:1016B0002D4C2168591A2D4D45F822102360013216
:1016C00002F01F0202602A490B6801330B6013F01D
:1016D0000F0F43D1013A114600200346844609E02A
:1016E000013901F01F01214C54F821401B194CF124
:1016F000000C01300F28F3DD1B0943EA0C740021B4
:10170000084609E0013A02F01F02184B53F8223054
:10171000E31A03FB030001310F29F3DD031100EE8F
:10172000103AB8EEC00B08F05FFBFDEEC07B17EE81
:10173000903A104AA2FB042403EB830303EBD41377
:1017400013330D4AA2FB03231B090C4A13604CF20E
:101750008232934238BF1346094AD36238BD00BF74
:101760001406002410050024180600249405002403
:101770009005002489888888CDCCCCCC1C06002418
:10178000000400407047FEE7FEE7FEE7FEE7704713
:1017900008B5024804F0D2F808BD00BF6802002472
:1017A00008B5024804F0B2FD08BD00BF20060024C1
:1017B00008B5074B1B681B6913F0020F03D10448DF
:1017C00004F0A4FD08BD0348FFF76AFFF7E700BF78
:1017D000A0030024EC03002408B5024804F096FDA1
:1017E00008BD00BFEC03002408B5024806F012FC57
:1017F00008BD00BF8404002400B583B00A4BD3F8B1
:10180000F42042F00202C3F8F420D3F8F43003F0DD
:1018100002030193019B00220F216FF0010000F0F1
:1018200083FA03B05DF804FB0044025830B5B7B04A
:1018300005460024319432943394349435942749E6
:101840004FF48070FFF73AF8BC22214602A807F057
:101850006FFD2A68224B9A4201D037B030BD4FF459
:101860000043029302A801F023FC002833D11D4B52
:10187000D3F8EC2042F48072C3F8EC20D3F8EC20CB
:1018800002F480720092009AD3F8E02042F008023D
:10189000C3F8E020D3F8E03003F008030193019B84
:1018A00011494FF48070FFF709F8032331930223A5
:1018B00032930024339434930923359331A90B4890
:1018C00002F060FD22460521132000F02DFA1320BE
:1018D00000F06EFAC1E7FFF76FF8C8E784A10008CF
:1018E00000A000400044025898A10008000C0258D3
:1018F00000B58DB000230793089309930A930B93C7
:101900000368B3F1804F0BD04A4A934233D04A4A1E
:1019100093425CD0494A934267D00DB05DF804FB16
:10192000474BD3F8E82042F00102C3F8E820D3F88F
:10193000E82002F001020092009AD3F8E02042F081
:101940000102C3F8E020D3F8E03003F00103019373
:10195000019B01230793022208920B9307A93948A0
:1019600002F010FD002205211C2000F0DDF91C20F2
:1019700000F01EFAD1E7324BD3F8E82042F0020221
:10198000C3F8E820D3F8E82002F002020292029A9B
:10199000D3F8E02042F00402C3F8E020D3F8E030AE
:1019A00003F004030393039B4FF400730793022394
:1019B00008930B9307A9244802F0E4FC00220521B8
:1019C0001D2000F0B1F91D2000F0F2F9A5E71C4B35
:1019D000D3F8E82042F00402C3F8E820D3F8E83056
:1019E00003F004030493049B97E7154BD3F8F0200E
:1019F00042F48032C3F8F020D3F8F02002F48032B1
:101A00000592059AD3F8E02042F01002C3F8E020D6
:101A1000D3F8E03003F010030693069B20230793CE
:101A20000223089304230B9307A9084802F0AAFC99
:101A300073E700BF00040040000800400040014080
:101A400000440258000002580008025800100258D2
:101A500000B589B00023039304930593069307937D
:101A600003681C4A934205D01B4A93421AD009B01E
:101A70005DF804FB194BD3F8E02042F00402C3F8F0
:101A8000E020D3F8E03003F004030193019B4FF40E
:101A9000E073039302230493079303A9104802F011
:101AA00071FCE4E70D4BD3F8E02042F00802C3F8E4
:101AB000E020D3F8E03003F008030293029B4FF4D8
:101AC0008053039302230493079303A9054802F06C
:101AD00059FCCCE7000400400008004000440258D4
:101AE00000080258000C025810B5BAB00446002194
:101AF00035913691379138913991BC2206A807F07B
:101B000017FC23684E4A934207D04E4A934235D081
:101B10004D4A934262D03AB010BD0123069306A805
:101B200001F0C6FA38BB494BD3F8F02042F010025E
:101B3000C3F8F020D3F8F02002F010020092009ACF
:101B4000D3F8E02042F00102C3F8E020D3F8E030FF
:101B500003F001030193019B4FF4C063359302230B
:101B600036930023379338930723399335A93848A0
:101B700002F008FCCFE7FEF71FFFD4E7022306932D
:101B800006A801F095FA30BB304BD3F8E82042F4B8
:101B90000032C3F8E820D3F8E82002F400320292C1
:101BA000029AD3F8E02042F00802C3F8E020D3F80C
:101BB000E03003F008030393039B60233593022373
:101BC00036930023379338930723399335A9214857
:101BD00002F0D8FB9FE7FEF7EFFED5E7022306935E
:101BE00006A801F065FA38BB184BD3F8E82042F498
:101BF0008022C3F8E820D3F8E82002F4802204927F
:101C0000049AD3F8E02042F00802C3F8E020D3F8A9
:101C1000E03003F008030593059B4FF440633593D0
:101C2000022336930023379338930723399335A93A
:101C3000094802F0A7FB6EE7FEF7BEFED4E700BF3F
:101C40000010014000440040004800400044025899
:101C500000000258000C0258000402580F2801D955
:101C60000120704710B58AB00446002201461920B1
:101C700000F05AF8192000F09BF8174B1C60174B26
:101C8000D3F8F02042F00102C3F8F020D3F8F0308E
:101C900003F001030093009B01A902A801F01AF8C8
:101CA00001F006F843000E48A0FB03239B0C013B08
:101CB0000C480D4A026040F2E732C26043600023E4
:101CC0000361836004F072FC10B101200AB010BD02
:101CD000044804F0B1FAF9E7040000240044025873
:101CE00083DE1B43200600240000014010B504469B
:101CF000C31E042B0DD8094AD36823F4E0631B04E8
:101D00001B0C240204F4E0641C43054B2343D36002
:101D100010BD92210348FEF743FEECE700ED00E022
:101D20000000FA05B8A1000870B505460C46164635
:101D30000F2A21D80F2C24D8194BDB68C3F30223B8
:101D4000C3F10701042928BF04211A1D062A1DD941
:101D5000033B4FF0FF3202FA01F124EA01049C40F8
:101D600002FA03F326EA03063443002D10DB2401B4
:101D7000E4B20C4B5C5570BDAA210B48FEF710FE77
:101D8000D8E7AB210848FEF70BFED5E70023E0E7D4
:101D900005F00F052401E4B2044B5C55EBE700BFEE
:101DA00000ED00E000E400E0B8A1000814ED00E060
:101DB00010B5041E0ADB002C07DB04F01F026409C7
:101DC00001239340044A42F8243010BDBE21034849
:101DD000FEF7E6FDEFE700BF00E100E0B8A1000874
:101DE000002800F0BC8338B50446036813B113F033
:101DF0003F0F25D0236813F0010F3AD06368002B02
:101E000018BFB3F5803F02D0B3F5A02F1ED1A24A70
:101E1000136903F03803926A102B21D0182B1BD0C2
:101E20006368B3F5803F57D0002B6BD19A4B1A688B
:101E300022F480321A601A6822F480221A6050E07C
:101E40004FF4CF719548FEF7ABFDD3E740F2A311F5
:101E50009248FEF7A5FDDAE702F00302022ADFD17D
:101E60008D4B1B6813F4003F03D06368002B00F018
:101E70007883236813F0020F00F0A380E368092B36
:101E800018BF012B03D9112B01D0192B60D1236965
:101E90007F2B63D8804A1369926A13F0380366D0A7
:101EA000182B61D0E368002B00F0DC807A490A68C7
:101EB00022F0190213430B6002F00EFE0546764B2A
:101EC0001B6813F0040F40F0AB8002F005FE401BCE
:101ED0000228F4D903204BE36F4A136843F480339C
:101EE000136063682BB302F0F7FD05466A4B1B686D
:101EF00013F4003FBDD102F0EFFD401B6428F5D97B
:101F0000032035E3B3F5A02F09D0634B1A6822F400
:101F100080321A601A6822F480221A60E1E75E4B70
:101F20001A6842F480221A601A6842F480321A60F9
:101F3000D7E702F0D1FD0546574B1B6813F4003F6D
:101F400097D002F0C9FD401B6428F5D903200FE3A8
:101F500040F2D7115148FEF723FD98E74FF4EC719A
:101F60004E48FEF71DFD95E712F0030F9AD14A4B3C
:101F70001B6813F0040F03D0E368002B00F0F3821A
:101F800002F0C4FD41F20303984212D82269402AAC
:101F900007D041494B6823F47C3343EA02334B605A
:101FA0000FE03D4A536823F47C3343F4003353601D
:101FB00007E0394A536823F0FE43216943EA01638D
:101FC0005360236813F0100F00F09E80E369002B2C
:101FD00018BF802B5AD1236A3F2B61D82E4A136930
:101FE00003F03803926A082B64D0182B5ED0E369A3
:101FF000002B00F0C980284A136843F08003136067
:1020000002F06AFD0546244B1B6813F4807F40F004
:10201000998002F061FD401B0228F4D90320A7E259
:1020200002F074FD41F20303984212D82269402A5B
:1020300007D019494B6823F47C3343EA02334B60E1
:10204000BFE7154A536823F47C3343F400335360ED
:10205000B7E7114A536823F0FE43216943EA01635D
:102060005360AEE70C4A136823F00103136002F0DB
:1020700033FD0546084B1B6813F0040FA1D002F096
:102080002BFD401B0228F5D9032071E240F21A21F2
:102090000248FEF785FC9EE700440258F0A10008C4
:1020A00040F21B219A48FEF77BFC97E702F00302FF
:1020B000012A9CD1974B1B6813F4807F03D0E369FE
:1020C000802B40F0528202F021FD41F2030398423E
:1020D00012D8226A202A07D08E494B6823F0F84391
:1020E00043EA82634B600FE08A4A536823F0F84367
:1020F00043F08043536007E0864AD36823F07C5363
:10210000216A43EA0163D360236813F0080F69D0A2
:102110006369012B4CD86369002B4FD07D4A536F04
:1021200043F00103536702F0D7FC0546794B5B6F20
:1021300013F0020F56D102F0CFFC401B0228F5D954
:10214000032015E202F0E2FC41F20303984212D8A8
:10215000226A202A07D06F494B6823F0F84343EAEC
:1021600082634B60D0E76B4A536823F0F84343F037
:1021700080435360C8E7674AD36823F07C53216AE1
:1021800043EA0163D360BFE7624A136823F0800328
:10219000136002F0A1FC05465E4B1B6813F4807FC0
:1021A000B2D002F099FC401B0228F5D90320DFE1F0
:1021B0004FF417715648FEF7F3FBACE7554A536FDF
:1021C00023F00103536702F087FC0546514B5B6F18
:1021D00013F0020F06D002F07FFC401B0228F5D955
:1021E0000320C5E1236813F0200F32D0A369012B2F
:1021F00015D8A369CBB1474A136843F480531360E1
:1022000002F06AFC0546434B1B6813F4005F20D1C3
:1022100002F062FC401B0228F5D90320A8E140F23D
:1022200087213B48FEF7BCFBE3E73A4A136823F4F7
:102230008053136002F050FC0546364B1B6813F4C4
:10224000005F06D002F048FC401B0228F5D90320AD
:102250008EE1236813F0040F71D0A368052B18BF1B
:10226000012B13D82C4A136843F48073136002F0D7
:1022700033FC0546284B1B6813F4807F0CD102F019
:102280002BFC401B6428F5D9032071E140F2B121F9
:102290001F48FEF785FBE5E7A368012B0AD00BBBBF
:1022A0001C4B1A6F22F001021A671A6F22F0040207
:1022B0001A6704E0174A136F43F001031367A3681A
:1022C00063B302F009FC0546124B1B6F13F0020FBB
:1022D00035D102F001FC401B41F288339842F3D91A
:1022E000032045E1052B09D00A4B1A6F22F00102A9
:1022F0001A671A6F22F004021A67E0E7054B1A6F9B
:1023000042F004021A671A6F42F001021A67D6E718
:10231000F0A10008004402580048025802F0DCFB1B
:1023200005469B4B1B6F13F0020F08D002F0D4FB45
:10233000401B41F288339842F3D9032018E1636AC5
:10234000022B41D8636A002B00F01181904A126978
:1023500002F03802182A00F0D980022B40F0C08029
:10236000A36A032B18BF012B01D9022B32D1E36AD8
:10237000013B3E2B34D8236B043BB3F5FE7F35D8AD
:10238000636B013B7F2B37D8A36B013B7F2B39D885
:10239000E36B013B7F2B3BD8A36CB3F5005F3DD2D1
:1023A0007B4A136823F08073136002F095FB0546A7
:1023B000774B1B6813F0007F36D002F08DFB401B7B
:1023C0000228F5D90320D3E040F2E3217148FEF75B
:1023D000E7FAB7E74FF43B716E48FEF7E1FAC6E75C
:1023E00040F2ED216B48FEF7DBFAC4E740F2EE2144
:1023F0006848FEF7D5FAC3E740F2EF216548FEF7DB
:10240000CFFAC1E74FF43C716248FEF7C9FABFE763
:1024100040F2F1215F48FEF7C3FABDE740F2F22136
:102420005C48FEF7BDFABBE7594B996A5A4A0A4025
:10243000A16AE06A41EA00110A439A62226B013AFA
:10244000C2F30802616B0139490289B20A43A16BE8
:102450000139090401F4FE010A43E16B013909065F
:1024600001F0FE410A431A63DA6A22F00102DA62DD
:10247000596B4A4A0A40A16C42EAC1025A63DA6ABD
:1024800022F00C02216C0A43DA62DA6A22F00202BC
:10249000616C0A43DA62DA6A42F48032DA62DA6A3A
:1024A00042F40032DA62DA6A42F48022DA62DA6AEC
:1024B00042F00102DA621A6842F080721A6002F099
:1024C0000BFB0446324B1B6813F0007F06D102F071
:1024D00003FB001B0228F5D9032049E0002047E058
:1024E0002B4A136823F08073136002F0F5FA044658
:1024F000274B1B6813F0007F06D002F0EDFA001B9B
:102500000228F5D9032033E0002031E0204A916A07
:10251000106B012B2DD001F00303A26A93422AD144
:10252000C1F30511E36A994227D1C0F30802236B76
:10253000013B9A4223D1C0F34622636B013B9A428E
:102540001FD1C0F30642A36B013B9A421BD1C0F3DB
:102550000660E36B013B984217D1002008E00120A0
:102560007047012004E0012002E0012000E000208B
:1025700038BD0120FCE70120FAE70120F8E701203F
:10258000F6E70120F4E70120F2E70120F0E700BFC1
:1025900000440258F0A100080CFCFFFF0700FFFFF9
:1025A000744B1B6903F03803102B00F0DE80182BEE
:1025B00010D00BB1704870476E4B1B6813F0200FA2
:1025C00000F0D5806B4B1868C0F3C1006B4B23FA49
:1025D00000F0704710B4674A916A01F00301946AF1
:1025E000C4F30510D36A03F0010C536BC3F3CC039F
:1025F0000CFB03F307EE903AF8EE677A14F47C7F55
:1026000000F09380012965D0022900F09180E1B1AA
:1026100007EE100AF8EE476A9FED596A86EE267AB1
:10262000544B1B6BC3F3080306EE903AF8EE666A50
:102630009FED546A67EE867A76EEA77AF7EE006A27
:1026400077EEA67A27EE277A60E0136813F0200F62
:1026500023D011461268C2F3C102484BD34007EEA3
:10266000103AF8EE476A07EE100AB8EE476A86EEAF
:10267000867A0B6BC3F3080306EE903AF8EE666AAF
:102680009FED406A67EE867A76EEA77AF7EE006AEB
:1026900077EEA67A27EE277A38E007EE100AF8EEF2
:1026A000476A9FED396A86EE267A324B1B6BC3F37D
:1026B000080306EE903AF8EE666A9FED326A67EE1E
:1026C000867A76EEA77AF7EE006A77EEA67A27EE9C
:1026D000277A1BE007EE100AF8EE476A9FED286A9A
:1026E00086EE267A234B1B6BC3F3080306EE903A63
:1026F000F8EE666A9FED236A67EE867A76EEA77A31
:10270000F7EE006A77EEA67A27EE277A194B1B6B55
:10271000C3F34623013307EE903AF8EE677AC7EE2B
:10272000276AFCEEE67A17EE900A5DF8044B7047D4
:1027300007EE100AF8EE476A9FED146A86EE267AD5
:102740000C4B1B6BC3F3080306EE903AF8EE666A77
:102750009FED0C6A67EE867A76EEA77AF7EE006A4E
:1027600077EEA67A27EE277AD0E709487047034824
:10277000704700BF0044025800093D000090D0039C
:102780000024744A000000390024744C20BCBE4B65
:1027900040787D01002800F0418270B50D46044666
:1027A0000368013B3E2B00F2E9800F2D00F2EC8024
:1027B0009D4B1B6803F00F03AB420BD29A4A136880
:1027C00023F00F032B431360136803F00F03AB4296
:1027D00040F02682236813F0040F18D02269934B2F
:1027E0009B6903F070039A4211D9002A18BF402A4E
:1027F00006D0502A04D0602A02D0702A40F0CA8045
:102800008A4A936923F0700321690B43936123681B
:1028100013F0080F18D06269844BDB6903F0700372
:102820009A4211D9002A18BF402A06D0502A04D053
:10283000602A02D0702A40F0B3807C4AD36923F02A
:10284000700361690B43D361236813F0100F1CD030
:10285000A269764BDB6903F4E0639A4215D9002A3A
:1028600018BFB2F5806F09D0B2F5A06F06D0B2F5EF
:10287000C06F03D0B2F5E06F40F098806B4AD36927
:1028800023F4E063A1690B43D361236813F0200FA5
:1028900018D0E269654B1B6A03F070039A4211D9A4
:1028A000002A18BF402A06D0502A04D0602A02D03D
:1028B000702A40F081805D4A136A23F07003E16959
:1028C0000B431362236813F0020F1FD0E268574BCB
:1028D0009B6903F00F039A4218D9002A18BF082AEF
:1028E0000DD0092A0BD00A2A09D00B2A07D00C2AAE
:1028F00005D00D2A03D00E2A01D00F2A62D14B4AEF
:10290000936923F00F03E1680B439361236813F08D
:10291000010F00F09D80A368002B18BFB3F5006F76
:1029200014D0B3F5106F11D0B3F5206F0ED0B3F5FE
:10293000306F0BD0B3F5406F08D0B3F5506F05D0B2
:10294000B3F5606F02D0B3F5706F41D16368032BAC
:1029500044D8364A936923F47063A1680B439361AA
:102960006368022B40D0032B64D0012B69D02F4A1F
:10297000126812F0040F3CD1012030E140F27F31A7
:102980002B48FEF70DF810E74FF460712848FEF76A
:1029900007F80DE74FF467712548FEF701F82FE7B8
:1029A00040F2AE312248FDF7FBFF46E740F2BF316F
:1029B0001F48FDF7F5FF61E740F2D1311C48FDF7F4
:1029C000EFFF78E74FF479711948FDF7E9FF96E7D3
:1029D0004FF47D711648FDF7E3FFB7E740F2F5319C
:1029E0001348FDF7DDFFB4E7126812F4003F00F072
:1029F00019810E490A6922F0070213430B6102F0A4
:102A00006BF80646094B1B6903F038036268B3EBA9
:102A1000C20F1DD002F060F8801B41F2883398424B
:102A2000F0D90320DBE000BF002000520044025830
:102A3000F0A100087D4A126812F0007FD9D1012070
:102A4000CDE07A4A126812F4807FD2D10120C6E02C
:102A5000236813F0020F20D0E268744B9B6903F0E7
:102A60000F039A4219D2002A18BF082A0ED0092A49
:102A70000CD00A2A0AD00B2A08D00C2A06D00D2A1C
:102A800004D00E2A02D00F2A40F0AA80674A936928
:102A900023F00F03E1680B439361654B1B6803F060
:102AA0000F03AB420BD9624A136823F00F032B4389
:102AB0001360136803F00F03AB4240F0B580236846
:102AC00013F0040F18D02269584B9B6903F0700370
:102AD0009A4211D2002A18BF402A06D0502A04D0A8
:102AE000602A02D0702A40F08180504A936923F016
:102AF000700321690B439361236813F0080F17D00B
:102B000062694A4BDB6903F070039A4210D2002AD3
:102B100018BF402A05D0502A03D0602A01D0702A5D
:102B20006AD1424AD36923F0700361690B43D361D0
:102B3000236813F0100F1BD0A2693C4BDB6903F430
:102B4000E0639A4214D2002A18BFB2F5806F08D011
:102B5000B2F5A06F05D0B2F5C06F02D0B2F5E06F4C
:102B600050D1324AD36923F4E063A1690B43D361A6
:102B7000236813F0200F17D0E2692C4B1B6A03F077
:102B800070039A4210D2002A18BF402A05D0502A5A
:102B900003D0602A01D0702A3AD1244A136A23F064
:102BA0007003E1690B431362FFF7FAFC1F498B695D
:102BB000C3F303231F4AD35C03F01F03D8408B6980
:102BC00003F00F03D35C03F01F0320FA03F31A4A48
:102BD00013601A4B18601A4B1868FFF73FF870BD66
:102BE00040F236411748FDF7DBFE4FE740F2574110
:102BF0001448FDF7D5FE78E740F269411148FDF72A
:102C0000CFFE8EE740F27B410E48FDF7C9FEA8E7F4
:102C100040F28D410B48FDF7C3FEBEE7012070472F
:102C20000120DCE70120DAE70120D8E70044025860
:102C300000200052D8A800080C000024080000243E
:102C400004000024F0A1000808B5FFF7A9FC0B4A16
:102C50009369C3F303230A49CB5C03F01F0320FAF3
:102C600003F3926902F00F02885C00F01F0023FA60
:102C700000F0044A1060044A136008BD0044025882
:102C8000D8A800080C0000240800002408B5FFF7AD
:102C9000DBFF054BDB69C3F30213044AD35C03F08B
:102CA0001F03D84008BD00BF00440258D8A8000840
:102CB00008B5FFF7C9FF054BDB69C3F30223044ADC
:102CC000D35C03F01F03D84008BD00BF0044025886
:102CD000D8A800083F230360114B1A6902F00702CD
:102CE00042609A6902F4706282609A6902F00F028F
:102CF000C2609A6902F070020261DA6902F0700241
:102D00004261DA6902F4E06282611B6A03F07003D7
:102D1000C361044B1B6803F00F030B60704700BFD7
:102D2000004402580020005270B504460E46036865
:102D3000013B3E2B3DD86368043BB3F5FE7F3ED894
:102D4000A368013B7F2B40D82369013B7F2B42D8EE
:102D5000E368013B7F2B44D86369002B18BF402BED
:102D600003D0802B01D0C02B41D1A369002B18BF09
:102D7000202B42D1E369B3F5005F44D2574B9B6AE5
:102D800003F00303032B00F0A780544A136823F0D9
:102D90008063136001F0A0FE0546504B1B6813F0E2
:102DA000006F36D001F098FE431B022BF5D90320AB
:102DB00093E040F6B2414A48FDF7F2FDBBE740F62A
:102DC000B3414748FDF7ECFDBAE740F6B44144484B
:102DD000FDF7E6FDB8E740F6B5414148FDF7E0FDF7
:102DE000B6E740F6B6413E48FDF7DAFDB4E740F6F7
:102DF000B7413B48FDF7D4FDB7E740F6B841384846
:102E0000FDF7CEFDB6E740F6B9413548FDF7C8FD00
:102E1000B4E7324B9A6A22F47C32216842EA0132EA
:102E20009A626268013AC2F30802A1680139490254
:102E300089B20A43E1680139090401F4FE010A4339
:102E400021690139090601F0FE410A439A63DA6AF1
:102E500022F0C00261690A43DA62DA6A22F02002D3
:102E6000A1690A43DA62DA6A22F01002DA62D96BE7
:102E70001C4A0A40E16942EAC102DA63DA6A42F0B6
:102E80001002DA62C6B91A46DB6A43F40023D36241
:102E9000124A136843F08063136001F01DFE04467C
:102EA0000E4B1B6813F0006F14D101F015FE001BD0
:102EB0000228F5D9032010E0012E05D0074AD36A75
:102EC00043F40013D362E3E7044AD36A43F4801364
:102ED000D362DDE7002000E0012070BD004402580D
:102EE00028A200080700FFFF70B504460E460368DD
:102EF000013B3E2B41D86368043BB3F5FE7F42D8CB
:102F0000A368013B7F2B44D82369013B7F2B46D824
:102F1000E368013B7F2B48D86369002B18BFB3F5EA
:102F2000806F05D0B3F5006F02D0B3F5406F42D18A
:102F3000A369002B18BFB3F5007F42D1E369B3F555
:102F4000005F44D2574B9B6A03F00303032B00F04E
:102F5000A780544A136823F08053136001F0BCFD2E
:102F60000546504B1B6813F0005F36D001F0B4FDEE
:102F7000431B022BF5D9032093E040F61A514A482F
:102F8000FDF70EFDB7E740F61B514748FDF708FD7A
:102F9000B6E740F61C514448FDF702FDB4E740F6A1
:102FA0001D514148FDF7FCFCB2E740F61E513E487A
:102FB000FDF7F6FCB0E740F61F513B48FDF7F0FC8B
:102FC000B6E74FF452613848FDF7EAFCB6E740F641
:102FD00021513548FDF7E4FCB4E7324B9A6A22F000
:102FE0007C72216842EA01529A626268013AC2F335
:102FF0000802A1680139490289B20A43E16801392E
:10300000090401F4FE010A4321690139090601F0AE
:10301000FE410A431A64DA6A22F4406261690A4393
:10302000DA62DA6A22F40072A1690A43DA62DA6AC1
:1030300022F48072DA62596C1C4A0A40E16942EA61
:10304000C1025A64DA6A42F48072DA62C6B91A4678
:10305000DB6A43F48003D362124A136843F080535F
:10306000136001F039FD04460E4B1B6813F0005F3E
:1030700014D101F031FD001B0228F5D9032010E026
:10308000012E05D0074AD36A43F08073D362E3E789
:10309000044AD36A43F40003D362DDE7002000E072
:1030A000012070BD0044025828A200080700FFFF5D
:1030B000F8B50446036813F0006F30D0436EB3F5E3
:1030C000001F26D00ED8EBB1B3F5801F07D1022127
:1030D0000430FFF729FE054645B12E4621E00126C2
:1030E00035461EE0B3F5401F09D100259E4A136DF9
:1030F00023F44013616E0B431365002611E0012693
:1031000035460EE0984AD36A43F40033D362002573
:10311000ECE702212430FFF7E7FE0546DCE7002656
:103120003546236813F4807F14D0636D042B30D8A8
:10313000DFE803F00322280808008B4AD36A43F42F
:103140000033D36245BB884A136D23F00703616DDA
:103150000B431365236813F4007F2FD0A36D802BDE
:103160004AD01ED8002B41D0402B17D10021201D62
:10317000FFF7DAFD054619E00021201DFFF7D4FD19
:103180000546DFE7002104F12400FFF7ADFE054608
:10319000D8E701263546DDE72E46DBE70126354632
:1031A0000CE0C02B02D0B3F5807F1CD15DBB6E4A12
:1031B000136D23F4E073A16D0B431365236813F4BF
:1031C000806F34D0D4F8A430B3F5800F4DD01FD821
:1031D000002B44D0B3F5001F17D10021201DFFF7AD
:1031E000A3FD05461AE001263546E7E75E4AD36AA5
:1031F00043F40033D362D9E7002104F12400FFF740
:1032000073FE0546D2E72E46D8E7012635460EE086
:10321000B3F5C00F02D0B3F5000F1DD165BB524A04
:10322000936D23F46003D4F8A4100B4393652368D3
:1032300013F4006F35D0D4F8A830B3F1007F53D029
:103240001FD8002B4AD0B3F1807F17D10021201D59
:10325000FFF76AFD05461AE001263546E7E7424AD0
:10326000D36A43F40033D362D8E7002104F1240089
:10327000FFF73AFE0546D1E72E46D8E70126354648
:103280000FE0B3F1407F02D0B3F1806F23D1002D66
:1032900031D1354A936D23F0E063D4F8A8100B4385
:1032A0009365236813F0007F2ED0A36C202B3ED0B3
:1032B00026D833B1102B20D12B4AD36A43F40033E4
:1032C000D362002D39D1284AD36C23F03003A16C8E
:1032D0000B43D36418E001263546E2E7224AD36A5D
:1032E00043F40033D362D2E7002104F12400FFF756
:1032F000FBFD0546CBE72E46D3E70126354603E026
:10330000302BDED001263546236813F4805F3BD096
:10331000E36DB3F5005F2FD014D83BB3B3F5805FF6
:103320000DD10021201DFFF7FFFC054610E0022112
:10333000201DFFF7F9FC0546C3E72E46E4E701260A
:10334000354621E0B3F5405F02D0B3F5804F08D198
:10335000CDB9054A136D23F4E043E16D0B431365CA
:1033600012E0012635460FE000440258534AD36A62
:1033700043F40033D362EBE7002104F12400FFF7AC
:10338000B3FD0546E4E72E46236813F4005F25D01D
:10339000236EB3F5003F3FD015D83BB1B3F5803F66
:1033A0000ED10121201DFFF7BFFC0546002D3AD1AB
:1033B000424A136D23F4E023216E0B4313650DE0A5
:1033C000012635460AE0B3F5802FEFD0B3F5A02FE4
:1033D000ECD0B3F5403FE9D001263546236813F41D
:1033E000804F30D0D4F8AC30B3F1005F47D01FD855
:1033F0003BB1B3F1805F18D10121201DFFF794FC90
:103400000546002D42D12D4A936D23F0E043D4F8B8
:10341000AC100B43936516E0012104F12400FFF783
:1034200063FD0546C2E72E46D8E7012635460AE089
:10343000B3F1804FE5D0B3F1A04FE2D0B3F1405FDC
:10344000DFD001263546236813F4004F09D0E36E20
:10345000B3F1805F1CD0B3F1005F27D0EBB1012640
:103460003546236813F0807F39D0636C032B00F25C
:10347000A681DFE813F02A0025009E012A00012121
:1034800004F12400FFF730FD0546BAE72E46DAE7DF
:103490000A4AD36A43F40033D3626DB9074A136D05
:1034A00023F04053E16E0B431365DAE70121201D41
:1034B000FFF73AFC0546F0E72E46D2E700440258F3
:1034C000B74AD36A43F40033D362002D40F07A81C7
:1034D000B34AD36C23F00303616C0B43D3642368BA
:1034E00013F4800F00F08C81D4F8B030B3F5807FF6
:1034F00018BFB3F5007F00F00D81B3F50C5F00F04D
:103500000981B3F54C5F00F00581B3F5864F00F0FB
:103510000181B3F5A64F00F0FD80B3F5C64F00F072
:10352000F980B3F5E64F00F0F580B3F5034F00F0F6
:10353000F180B3F5134F00F0ED80B3F5234F00F0A9
:10354000E980B3F5334F00F0E580B3F5434F00F069
:10355000E180B3F5534F00F0DD80B3F5634F00F029
:10356000D980B3F5734F00F0D5808E4A934200F0B6
:10357000D18002F58052934200F0CC8002F5805257
:10358000934200F0C78002F58052934200F0C2805F
:1035900002F58052934200F0BD8002F580529342C2
:1035A00000F0B88002F58052934200F0B38002F53B
:1035B0008052934200F0AE8002F58052934200F0B8
:1035C000A98002F58052934200F0A48002F5805257
:1035D000934200F09F8002F58052934200F09A805F
:1035E00002F58052934200F0958002F5805293429A
:1035F00000F0908002F58052934200F08B8002F53B
:103600008052934200F0868002F58052934200F08F
:10361000818002F5805293427CD002F58052934221
:1036200078D002F58052934274D002F580529342D2
:1036300070D002F5805293426CD002F580529342D2
:1036400068D002F58052934264D002F580529342D2
:1036500060D002F5805293425CD002F580529342D2
:1036600058D002F58052934254D002F580529342D2
:1036700050D002F5805293424CD002F580529342D2
:1036800048D002F58052934244D002F580529342D2
:1036900040D002F5805293423CD002F580529342D2
:1036A00038D002F58052934234D002F580529342D2
:1036B00030D002F5805293422CD002F580529342D2
:1036C00028D002F58052934224D002F580529342D2
:1036D00020D002F5805293421CD002F580529342D2
:1036E00018D002F58052934214D002F580529342D2
:1036F00010D002F5805293420CD002F580529342D2
:1037000008D002F58052934204D040F27F3126481F
:10371000FDF746F9254A136843F48073136001F0FE
:10372000DBF90746214B1B6813F4807F05D101F0BC
:10373000D3F9C01B6428F5D90325002D5FD1184BA0
:103740001B6FD4F8B020534013F4407F0CD0144BBF
:103750001A6F22F44072196F41F480311967196FA2
:1037600021F4803119671A67D4F8B030B3F5807F3F
:103770002AD0002D62D1D4F8B03003F44072B2F5F3
:10378000407F32D0064A136923F47C531361044905
:103790000B6FD4F8B020C2F30B0213430B6707E0A2
:1037A000004402580003010028A200080048025803
:1037B00026E00221201DFFF7B7FA054685E601261F
:1037C00035468CE62E468AE601F086F907468F4B91
:1037D0001B6F13F0020FCCD101F07EF9C01B41F238
:1037E00088339842F3D90325C3E78848026922F455
:1037F0007C52874901EA131313430361C7E72E463E
:10380000236813F0010F32D0A36F282B2DD8DFE8E7
:1038100003F01C2C2C2C2C2C2C2C172C2C2C2C2C72
:103820002C2C252C2C2C2C2C2C2C1C2C2C2C2C2CEF
:103830002C2C1C2C2C2C2C2C2C2C1C002E46DFE78A
:103840000121201DFFF770FA0546E5B96F4A536D57
:1038500023F03803A16F0B43536508E0012104F105
:103860002400FFF741FB0546EFE7012635462368B4
:1038700013F0020F16D0636F052B27D8DFE803F093
:103880000A051F0A0A0A2E46F1E70121201DFFF74B
:103890004BFA0546EDB95D4A536D23F00703616F9E
:1038A0000B435365236813F0040F22D0D4F89030F3
:1038B000052B43D8DFE803F0140F3B141414012147
:1038C00004F12400FFF710FB0546E3E70126354627
:1038D000E8E72E46E6E70121201DFFF725FA054619
:1038E0007DBB4A4A936D23F00703D4F890100B4335
:1038F0009365236813F0200F33D0D4F88C30B3F1E4
:10390000005F4CD022D83BB1B3F1805F1BD10021C6
:10391000201DFFF709FA0546002D47D13B4A536D9C
:1039200023F0E043D4F88C100B43536519E00121D8
:1039300004F12400FFF7D8FA0546D1E70126354601
:10394000D7E72E46D5E7012635460AE0B3F1804F8A
:10395000E2D0B3F1A04FDFD0B3F1405FDCD001265D
:103960003546236813F0400F30D0D4F89830B3F5C3
:10397000006F4FD01FD83BB1B3F5806F18D1002135
:10398000201DFFF7D1F90546002D4AD11F4A936D3E
:1039900023F4E053D4F898100B43936516E002210A
:1039A00004F12400FFF7A0FA0546B5E72E46D8E754
:1039B000012635460AE0B3F5805FE5D0B3F5A05F98
:1039C000E2D0B3F5406FDFD001263546236813F00F
:1039D000800F36D0D4F89C30B3F5804F00F0CB8008
:1039E00024D83BB1B3F5005F1DD10021201DFFF7A6
:1039F0009BF90546002D40F0C580044A936D23F4E1
:103A00006043D4F89C100B4393651AE000440258BD
:103A1000CFFFFF00022104F12400FFF765FA0546FD
:103A2000B2E72E46D2E7012635460AE0B3F5004F4D
:103A3000E0D0B3F5204FDDD0B3F5C04FDAD001268A
:103A40003546236813F0080F1AD0D4F88030B3F548
:103A5000805F18BFB3F5005F04D01BB1B3F5405FC2
:103A600040F09280D4F88030B3F5805F00F092800F
:103A7000B04A536D23F44053D4F880100B43536580
:103A8000236813F0100F1AD0D4F89430B3F5807F68
:103A900018BFB3F5007F04D01BB1B3F5405F40F011
:103AA0008380D4F89430B3F5807F00F08380A14AFE
:103AB000936D23F44073D4F894100B4393652368FB
:103AC00013F4002F0CD0D4F8A030B3F5803F00F0F1
:103AD0008A80B3F5003F7CD0002B75D00126354697
:103AE000236813F4802F0ED0D4F88430B3F5001F70
:103AF00000F09180B3F5401F00F08380B3F5801F84
:103B00007AD001263546236813F4803F10D0E36C49
:103B1000002B18BFB3F5803F40F08680E36C002B8C
:103B200000F08880B3F5803F00F092800126354692
:103B3000236813F0005F40F09380236813F4003F84
:103B400000F09C80E36FB3F5807F00F0EA8040F2E4
:103B50009180B3F5007F03D0B3F5407F40F0DF8064
:103B6000002D40F0E480734A536D23F44073E16FFD
:103B70000B43536582E0022104F12400FFF7B4F9FE
:103B8000054637E72E465CE740F20F516A48FCF7DE
:103B900007FF67E7022104F12400FFF7A5F90028D9
:103BA0003FF466AF012663E740F222516248FCF71A
:103BB000F7FE76E7022104F12400FFF795F90028CB
:103BC0003FF475AF012672E70021201DFFF7ACF826
:103BD00005467DB9574A936D23F44033D4F8A010BD
:103BE0000B4393657CE7022104F12400FFF77CF985
:103BF0000546EEE72E4673E74E4AD36A43F4003398
:103C0000D3627DB94B4A536D23F44013D4F884102A
:103C10000B43536577E7012104F12400FFF764F9B2
:103C20000546EEE72E466EE74FF4B1614248FCF7D9
:103C3000B7FE73E73F4AD36A43F40033D3626DB9EA
:103C40003C4AD36C23F48033E16C0B43D3646FE7BD
:103C50000221201DFFF768F80546F0E72E4667E7CA
:103C6000022104F12400FFF73FF900283FF465AF7B
:103C7000012662E7002B3FF473AF0126236813F49B
:103C8000801F0CD0236F002B18BFB3F1004F55D10C
:103C9000284A136D23F00043216F0B4313652368FB
:103CA00013F0805F0ED0D4F8B430002B18BFB3F5FA
:103CB000804F49D11F4A136923F48043D4F8B410CC
:103CC0000B431361236813F4001F0CD0A36E002B69
:103CD00018BFB3F1807F3DD1164A136D23F0807376
:103CE000A16E0B431365236813F0804F10D0D4F8F6
:103CF000B830002B18BFB3F5004F31D10D4B1A6906
:103D000022F400421A611A69D4F8B8100A431A6101
:103D10002368002B2ADB06B101263046F8BD0126B8
:103D2000ACE7044AD36A43F40033D36218E72E4663
:103D3000A4E700BF0044025828A2000840F2E7515F
:103D40001648FCF72DFEA3E740F2F1511348FCF7AB
:103D500027FEAFE740F2FB511048FCF721FEBBE71E
:103D600040F211610D48FCF71BFEC7E7236D002BE5
:103D700018BFB3F1805F02D0B3F1005F07D1084AEA
:103D8000D36C23F04053216D0B43D364C3E740F25F
:103D90001B610248FCF704FEF1E700BF28A20008FF
:103DA00000440258704B03600833036003F500734E
:103DB000036003F5806303606FF0585303606FF096
:103DC000505303606FF0105303606FF08063036023
:103DD000664B9A6AC2F3055242621A6CC2F3080239
:103DE000013282621A6CC2F30662013242631A6CBB
:103DF000C2F346220132C2621A6CC2F30642013299
:103E00000263DA6AC2F381228263DA6AC2F3402271
:103E1000C2639A6AC2F3053242609A6BC2F3080227
:103E2000013282609A6BC2F30662013242619A6B80
:103E3000C2F346220132C2609A6BC2F306420132DB
:103E40000261DA6AC2F381128261DA6AC2F3401255
:103E5000C2615A6D02F0380282675A6D02F00702A1
:103E600042679A6D02F00702C0F890205A6D02F482
:103E70004052C0F880205A6D02F0E042C0F88C2019
:103E80009A6D02F4E052C0F898209A6D02F46042F4
:103E9000C0F89C201A6D02F0070242651A6D02F408
:103EA000E07282659A6D02F46002C0F8A4209A6DF7
:103EB00002F0E062C0F8A8201A6F02F44072C0F865
:103EC000B0205A6D02F44012C0F88420DA6C02F47B
:103ED0008032C2645A6D02F44072C2671A6902F4F9
:103EE0008042C0F8B4209A6D02F44032C0F8A0209D
:103EF0001A6D02F0004202671A6D02F0807282664B
:103F00001A6D02F4401242661A6D02F4E042C26574
:103F10001A6D02F4E02202669A6D02F0E042C0F8E7
:103F2000AC201A6D02F04052C2665A6D02F4400293
:103F3000C0F88820DA6C02F003024264DA6C02F006
:103F400030028264DA6C02F0405202651B6913F49D
:103F5000004F03D10023C0F8B83070474FF400433E
:103F6000C0F8B830704700BFF7F1FFC900440258ED
:103F700008B5FEF769FE054B1B6AC3F30213044A3A
:103F8000D35C03F01F03D84008BD00BF00440258B3
:103F9000D8A8000810B5774A916A946AC4F3053E20
:103FA000D36AC3F3001CD36BC3F3CC030CFB03F342
:103FB00014F47C3F00F0D88001F0030107EE903A42
:103FC000F8EE677A012965D0022900F0B080E1B1EE
:103FD00007EE10EAB8EE477A9FED676AC6EE076A09
:103FE000644B9B6BC3F3080307EE103AB8EE477AB5
:103FF0009FED626A67EE867A77EE277AB7EE007AEF
:1040000077EE877A66EEA76A60E0136813F0200FF8
:1040100023D011461268C2F3C102594BD34007EEB8
:10402000103AB8EE477A06EE90EAB8EE666AC7EE46
:10403000066A8B6BC3F3080307EE103AB8EE477AB3
:104040009FED4E6A67EE867A77EE277AB7EE007AB2
:1040500077EE877A66EEA76A38E007EE10EAB8EEE8
:10406000477A9FED486AC6EE076A424B9B6BC3F3E3
:10407000080307EE103AB8EE477A9FED406A67EE04
:10408000867A77EE277AB7EE007A77EE877A66EE51
:10409000A76A1BE007EE10EAB8EE477A9FED366A92
:1040A000C6EE076A334B9B6BC3F3080307EE103A67
:1040B000B8EE477A9FED316A67EE867A77EE277A17
:1040C000B7EE007A77EE877A66EEA76A294A936B95
:1040D000C3F3462307EE103AB8EE477AB7EE006A0C
:1040E00037EE067AC6EE877AFCEEE77AC0ED007A04
:1040F000936BC3F3064307EE103AB8EE477A37EEF8
:10410000067AC6EE877AFCEEE77AC0ED017A936B09
:10411000C3F3066307EE903AF8EE677A77EE867A95
:1041200086EEA77ABCEEC77A80ED027A10BD07EE64
:1041300010EAB8EE477A9FED146AC6EE076A0D4B97
:104140009B6BC3F3080307EE103AB8EE477A9FED76
:104150000B6A67EE867A77EE277AB7EE007A77EE0B
:10416000877A66EEA76AB1E7002303604360836045
:10417000DCE700BF004402580024744A0000003904
:104180000090D0030024744C20BCBE4B10B5774A7D
:10419000916A946AC4F3055ED36AC3F3002C536C2E
:1041A000C3F3CC030CFB03F314F07C7F00F0D88046
:1041B00001F0030107EE903AF8EE677A012965D025
:1041C000022900F0B080E1B107EE10EAB8EE477ABC
:1041D0009FED676AC6EE076A644B1B6CC3F3080366
:1041E00007EE103AB8EE477A9FED626A67EE867A7C
:1041F00077EE277AB7EE007A77EE877A66EEA76ACF
:1042000060E0136813F0200F23D011461268C2F348
:10421000C102594BD34007EE103AB8EE477A06EE8A
:1042200090EAB8EE666AC7EE066A0B6CC3F3080341
:1042300007EE103AB8EE477A9FED4E6A67EE867A3F
:1042400077EE277AB7EE007A77EE877A66EEA76A7E
:1042500038E007EE10EAB8EE477A9FED486AC6EEFE
:10426000076A424B1B6CC3F3080307EE103AB8EE23
:10427000477A9FED406A67EE867A77EE277AB7EE47
:10428000007A77EE877A66EEA76A1BE007EE10EAFF
:10429000B8EE477A9FED366AC6EE076A334B1B6C61
:1042A000C3F3080307EE103AB8EE477A9FED316A80
:1042B00067EE867A77EE277AB7EE007A77EE877A1E
:1042C00066EEA76A294A136CC3F3462307EE103A39
:1042D000B8EE477AB7EE006A37EE067AC6EE877A0E
:1042E000FCEEE77AC0ED007A136CC3F3064307EEE9
:1042F000103AB8EE477A37EE067AC6EE877AFCEEC9
:10430000E77AC0ED017A136CC3F3066307EE903AC7
:10431000F8EE677A77EE867A86EEA77ABCEEC77AF1
:1043200080ED027A10BD07EE10EAB8EE477A9FEDF5
:10433000146AC6EE076A0D4B1B6CC3F3080307EE45
:10434000103AB8EE477A9FED0B6A67EE867A77EE01
:10435000277AB7EE007A77EE877A66EEA76AB1E73A
:104360000023036043608360DCE700BF0044025821
:104370000024744A000000390090D0030024744CDB
:1043800020BCBE4B2DE9F04782B007460C463F4AA1
:104390003F4B904218BF984214BF4FF001094FF0B5
:1043A00000092BD003F50063C31A18BF012302F5DF
:1043B0000062904222D00BB3364BC31A18BF0123C0
:1043C00002F50062904219D0C3B1334BC31A18BF33
:1043D000012302F50062904210D07BB12F4BC31A2B
:1043E00018BF012302F50062904207D033B12C4B75
:1043F000984203D0BB212B48FCF7D2FA23689AB22B
:1044000012B1294A1A401AB1BC212648FCF7C8FA51
:104410006368112B18BF012B1CD9022B1AD0122B49
:1044200018D0224A934215D002F58012934211D03F
:1044300002F5801293420DD0A2F5F812934209D0F2
:1044400002F58012934205D002F58012934201D00A
:10445000032B04D1A368022B06D8002566E0BD21FA
:104460001048FCF79DFAF5E7BE210E48FCF798FAD4
:10447000F3E7CE210B48FCF793FA6EE0E7210948F9
:10448000FCF78EFAC2E0092313E000BF00000258D7
:104490000004025800140258001C0258002402585C
:1044A0000028025860A200080000FFFF0000111160
:1044B00000238B4003430232904941F822304FF0F1
:1044C000B043D3F88020F34322EA0601606810F479
:1044D000803F01D046EA02014FF0B042C2F880109E
:1044E000D2F8842003EA0201606810F4003F01D092
:1044F00046EA02014FF0B042C2F88410126803EAA3
:104500000201606810F4801F01D046EA02014FF0FA
:10451000B042116052681340616811F4001F01D06D
:1045200046EA02034FF0B04253600135266836FA7E
:1045300005F300F0DF804FF0010808FA05F818EAEB
:104540000606F2D063685A1E112B18BF012A01D942
:10455000122B16D1E368032B8BD8BA6869000323AA
:104560008B4022EA0302E3688B401343BB607B6805
:1045700023EA08086368C3F30013AB4043EA080367
:104580007B60FA684FEA4508032303FA08F36FEAF1
:10459000030A22EA0302A36803FA08F31343FB6049
:1045A0006368122B18BF022B40D1B9F1000F29D03C
:1045B000534BFB1A18BF0123524A974222D00BB328
:1045C000514BFB1A18BF012302F50062974219D024
:1045D000C3B14E4BFB1A18BF012302F5006297428C
:1045E00010D07BB14A4BFB1A18BF012302F50062C1
:1045F000974207D033B1474B9F4203D0E62146484C
:10460000FCF7CEF923690F2B3FF638AFEA080832E2
:1046100057F8220005F0070399000F238B4020EA8A
:10462000030023698B40034347F822303B680AEAC2
:10463000030A636803F0030303FA08F343EA0A0377
:104640003B60636813F0805F3FF46FAF334BD3F888
:10465000F42042F00202C3F8F420D3F8F43003F05F
:1046600002030193019BAA08911C244B53F82100DB
:1046700005F0030399000F238B4020EA0300284B29
:104680009F423FF415AF03F580639F4222D003F5AC
:1046900080639F4220D003F580639F421ED003F5C4
:1046A00080639F421CD003F580639F421AD003F5BC
:1046B00080639F4218D003F580639F4216D003F5B4
:1046C00080639F4214D003F580639F423FF4DBAECA
:1046D0000A23EEE60123ECE60223EAE60323E8E6FA
:1046E0000423E6E60523E4E60623E2E60723E0E604
:1046F0000823DEE602B0BDE8F08700BF00040058E2
:10470000000C02580008025800140258001C0258FD
:10471000002402580028025860A2000800440258F1
:104720000000025870B5054614460E4621B1012C12
:1047300008D86CB1AE6170BD40F2AD110648FCF70F
:104740002FF9F4E74FF4D7710348FCF729F9F0E7A4
:104750003604AE61EFE700BF60A2000838B504463A
:104760000D4629B1636935EA030307D0A56138BD59
:1047700040F2C3110348FCF713F9F3E72D04A561D8
:10478000F5E700BF60A20008002800F0298108B505
:10479000024690F83530DBB2022B03D0802343650C
:1047A000012008BD0368904890498B4218BF83429E
:1047B0000CBF0121002166D03030834263D0183015
:1047C000834260D0183083425DD0183083425AD083
:1047D0001830834257D01830834254D000F55670B9
:1047E000834250D0183083424DD0183083424AD093
:1047F0001830834247D01830834244D01830834267
:1048000041D0183083423ED0183083423BD01968E3
:1048100021F00E0119601368A0F5956073498B4271
:1048200018BF83426AD072498B4267D018318B42DD
:1048300064D018318B4261D018318B425ED0183170
:104840008B425BD018318B4258D001F556718B42A8
:1048500054D018318B4251D018318B424ED0183180
:104860008B424BD018318B4248D018318B4245D007
:1048700018318B4242D018318B423FD0196821F059
:10488000010119603EE0042082F8350081BB584ADE
:1048900093422DD0183293422AD01832934227D017
:1048A0001832934224D01832934221D018329342C6
:1048B0001ED002F5567293421AD01832934217D086
:1048C0001832934214D01832934211D018329342C6
:1048D0000ED0183293420BD01832934208D01832BF
:1048E000934205D01A6822F001021A60002058E7AE
:1048F0001A6822F001021A60002052E7196821F0BC
:10490000010119601368384838498B4218BF834247
:1049100042D018318B423FD018318B423CD01831F5
:104920008B4239D018318B4236D018318B4233D07C
:1049300018318B4230D001F556718B422CD0183192
:104940008B4229D018318B4226D018318B4223D08C
:1049500018318B4220D018318B421DD018318B4238
:104960001AD018318B4217D022498B4214D01431FF
:104970008B4211D014318B420ED014318B420BD0AC
:1049800014318B4208D014318B4205D014318B4244
:1049900002D014318B4217D1116E0B6823F480734F
:1049A0000B60906DD36D03F01F0101238B404360BA
:1049B000536E916E5960D36E33B1196821F48071D2
:1049C0001960136F516F5960002382F8343001234E
:1049D00082F83530136D2BB1104698470020E0E681
:1049E000012070470020DCE6100002402800024051
:1049F000400002400854025810B50446431E012BE3
:104A00000CD8164BDB6813F0040F0DD1134BDB6889
:104A100003F00703A3421FD0012010BD40F23F1155
:104A20000F48FBF7BDFFECE70C4BD86820F0070000
:104A30000443DC6000F050F80446084B5B6813F454
:104A4000005F07D100F048F8001BB0F57A7FF4D979
:104A50000120E2E70020E0E70020DEE700480258FE
:104A600098A2000810B50320FDF740F9FDF798FD66
:104A70000F498B69C3F303230E4AD35C03F01F0372
:104A8000D8408B6903F00F03D35C03F01F0320FAB7
:104A900003F3094A1360094B18600020FDF7DEF8A4
:104AA00010B10124204610BD0446FCF7A5FEF9E72D
:104AB00000440258D8A800080C0000240800002474
:104AC000034B1B78034A11680B441360704700BF07
:104AD000000000246C060024014B1868704700BFDA
:104AE0006C06002438B50446FFF7F6FF0546B4F11E
:104AF000FF3F02D0044B1B781C44FFF7EDFF401B27
:104B0000A042FAD338BD00BF00000024014B186852
:104B1000000C70470010005C70477047704770478A
:104B20007047704770477047704770477047000084
:104B300030B4446B0368D3F884106F4A114041EAE3
:104B40008401C3F884100368D3F8841021F47F0132
:104B5000856B41EA0541C3F88410836B23440468E4
:104B6000D4F88810114041EA8301C4F88810046821
:104B7000D4F8881021F4FE01C56B41EA0541C4F860
:104B80008810C16B03EB41030468D4F8A0101140F6
:104B900041EA8301C4F8A0100468D4F8A01021F4FD
:104BA000FE01056C41EA0541C4F8A010016C446C9B
:104BB00004FB01330468D4F8B010114041EA8301CA
:104BC000C4F8B0100468D4F8B01021F4FE01856C6C
:104BD00041EA0541C4F8B010816CC46C04FB013398
:104BE0000468D4F8AC10114041EA8301C4F8AC1059
:104BF000016D446D04FB01330468D4F8F0101140DA
:104C000041EA8301C4F8F0100468D4F8F01021F4EC
:104C10007C11856D41EA0541C4F8F010816D03EB0C
:104C200041030468D4F8C0100A4042EA8303C4F880
:104C3000C0300268D2F8C03023F47C13C16D43EA5F
:104C40000143C2F8C0300268D2F8C03023F07C5370
:104C5000016E43EA0163C2F8C030436B274A1A442D
:104C60009200C266836B02EB83030367C16B03EBA5
:104C7000C1034367016C446C04FB01F103EB810346
:104C80008367816CC46C04FB01F103EB8103C36790
:104C9000016D446D04FB01F103EB8103C0F880302A
:104CA000816D03EBC103C0F88430816EC46D01FBDC
:104CB00004FC03EB8C03C0F88830046E04FB01F1A4
:104CC00003EB8103C0F890300D498B420DD9D0F829
:104CD0009C3043F02003C0F89C30032380F89830C8
:104CE000012007E0002342F8043BD0F890309342C3
:104CF000F8D8002030BC70470300FFFF002B0010E5
:104D0000FCD3004030B595B004464C22B64901A80A
:104D100004F000FBB5494FF48070FBF7CFFD002C89
:104D200000F0DF802368B24A934200F0E180B0498E
:104D3000B04A8B4218BF934240F0DE80A368002B3C
:104D400018BFB3F5807F03D0B3F5407F40F0DA8021
:104D5000E368042B00F2DC80237C012B00F2DE8070
:104D6000637C012B00F2E080A37C012B00F2E28047
:104D70006369013BB3F5007F80F0E280A369013BEA
:104D80007F2B00F2E380E369013BFF2B00F2E4801C
:104D9000236A013B7F2B00F2E580A368B3F5407FD7
:104DA00000F0E680A36B802B00F20B81E36B402BBD
:104DB00000F20D81236C402B00F20F81236C002B3D
:104DC00040F04481A36C402B00F25881A36C002B6F
:104DD00040F05A81236D402B00F26E81236D002B31
:104DE00040F07081A36D202B00F28481E36D226E70
:104DF0001344202B00F28481236E002B40F0868127
:104E0000E36D226ED34240F093817B494FF4807072
:104E1000FBF754FD94F89830002B42D184F8993078
:104E2000764BC4F8A030764BC4F8A430754BC4F868
:104E3000A830754BC4F8AC30744BC4F8B030744B28
:104E4000C4F8B430734BC4F8B830734BC4F8BC30FA
:104E5000724BC4F8C030724BC4F8C430714BC4F804
:104E6000C830714BC4F8CC30704BC4F8D030704BA4
:104E7000C4F8D4306F4BC4F8D8306F4BC4F8DC3072
:104E80006E4BC4F8E030D4F8E430002B00F06881B9
:104E90006B494FF48070FBF711FDD4F8E4302046E5
:104EA00098472268936923F010039361FFF714FE7B
:104EB000054623689A6912F0080F00F05581FFF744
:104EC0000BFE401B0A28F4D9D4F89C3043F00103B0
:104ED000C4F89C30032384F898300124204615B090
:104EE00030BD58494FF48070FBF7E8FC0124F5E72A
:104EF00003F5807262601AE740F237115248FBF7FF
:104F00004FFD1BE74FF49C714F48FBF749FD1FE72E
:104F100040F239114C48FBF743FD1DE74FF49D71FA
:104F20004948FBF73DFD1BE740F23B114648FBF7C4
:104F300037FD19E74FF49E714348FBF731FD17E742
:104F400040F23D114048FBF72BFD17E74FF49F71EE
:104F50003D48FBF725FD16E740F23F113A48FBF7C5
:104F60001FFD15E74FF4A0713748FBF719FD14E753
:104F7000636A013B1F2B12D8A36A013B0F2B14D885
:104F8000E36A013B1F2B16D8236B013B0F2B7FF6E7
:104F900009AF4FF4A3712C48FBF702FD02E740F282
:104FA00043112948FBF7FCFCE6E74FF4A2712648C1
:104FB000FBF7F6FCE4E740F245112348FBF7F0FC71
:104FC000E2E74FF4A4712048FBF7EAFCEEE640F27A
:104FD00049111D48FBF7E4FCECE64FF4A5711A48B3
:104FE000FBF7DEFCEAE600BF649E0008D0A20008E2
:104FF00000A0004000A40040E8A30008194B0008EE
:105000001B4B0008911300081D4B00081F4B0008A4
:10501000214B0008234B0008254B0008294B0008B2
:10502000C10E0008274B0008750E0008D50E0008B9
:10503000E90E0008FD0E00082B4B00082D4B000860
:105040001CA40008E4A2000800A3000890494FF443
:105050008070FBF733FC636C1A1F0A2B18BF042AFD
:105060007FF6B0AE0E2B3FF4ADAE122B3FF4AAAEDE
:105070004FF4A7718748FBF793FCA3E64FF4A871A0
:105080008448FBF78DFCA1E683494FF48070FBF761
:1050900015FCE36C1A1F0A2B18BF042A7FF69AAE80
:1050A0000E2B3FF497AE122B3FF494AE4FF4AA713F
:1050B0007848FBF775FC8DE64FF4AB717548FBF74C
:1050C0006FFC8BE675494FF48070FBF7F7FB636D5F
:1050D0001A1F0A2B18BF042A7FF684AE0E2B3FF44A
:1050E00081AE122B3FF47EAE4FF4AD716948FBF7F1
:1050F00057FC77E64FF4AE716648FBF751FC75E656
:1051000040F25D116348FBF74BFC75E664494FF4D0
:105110008070FBF7D3FB636E002B18BFB3F1804F99
:105120003FF46EAE40F261115A48FBF739FC67E676
:105130005C494FF48070FBF7C1FBA36E1A1F0A2B6A
:1051400018BF042A7FF661AE0E2B3FF45EAE122B21
:105150003FF45BAE4FF4B3714E48FBF721FC54E6CD
:10516000514BC4F8E43093E69A6942F001029A6127
:10517000FFF7B2FC054623689A6912F0010F0FD1C0
:10518000FFF7AAFC401B0A28F5D9D4F89C3043F05D
:105190000103C4F89C30032384F8983001249DE671
:1051A0009A6942F002029A61237C012B4FD0226857
:1051B000936943F0400393613C494FF48070FBF7DF
:1051C0007DFB637C012B4DD02268936923F48043DF
:1051D000936137494FF48070FBF770FBA37C012B80
:1051E0004BD02268936943F48053936131494FF463
:1051F0008070FBF763FB2268936923F44073A16816
:105200000B4393612268936923F0A403936122689E
:10521000136923F010031361E368012B4ED0002BB8
:1052200051D0022B00F0CC802268936943F08003B8
:1052300093612268136943F010031361E368032B41
:1052400041D12268936943F0200393613BE02268D7
:10525000936923F04003936117494FF48070FBF783
:105260002DFBAEE72268936943F4804393611049B4
:105270004FF48070FBF722FBB0E72268936923F4B8
:10528000805393610B494FF48070FBF717FBB2E733
:1052900038A3000800A300085CA3000880A300084E
:1052A000A0A30008C8A300082D18000874A40008D3
:1052B0008CA40008ACA4000850A4000822689369DC
:1052C00043F004039361A3695A1EE369013B1B0287
:1052D00043EA4263226A013A13436269013A216850
:1052E00043EA0243CB61A368B3F5407F6ED0236EDF
:1052F00033B12268D2F8C030616E0B43C2F8C030BF
:10530000E36D226ED3420DD02168D1F8C83023F06E
:105310000703A26E14A800EB820252F84C2C134330
:10532000C1F8C830236C6BB12168D1F8BC3023F0D0
:105330000703626C14A800EB820252F84C2C134352
:10534000C1F8BC30A36C73B12168D1F8BC3023F034
:105350007003E26C14A800EB820252F84C2C43EA72
:105360000213C1F8BC30236D73B12168D1F8BC3091
:1053700023F4E063626D14A800EB820252F84C2C17
:1053800043EA0223C1F8BC3022681C4B9A422ED05B
:105390001B494FF48070FBF791FA0023C4F8943056
:1053A000C4F89C30012384F898302046FFF7C0FBF6
:1053B0000446024613494FF48070FBF77FFA8DE5EF
:1053C0002268936943F0200393617CE7A36A013B61
:1053D000E26A013A43EA0223226B013A43EA0213EA
:1053E000626A013A216843EA0243CB607FE7626860
:1053F000936823F003039360CAE700BF00A0004056
:10540000D0A40008E8A4000838B5054690F8983004
:10541000013BDBB2012B07D9D0F89C3043F00203EB
:10542000C0F89C30012038BD0C460B68002B18BF1B
:10543000B3F1804F2DD1E368072B30D8E368072BF9
:1054400033D02368002B64D16268AB6B013B9A4276
:105450003DD82369B3F5006F3FD2E368072B06D030
:105460006369B3F5006F3ED2A368022B41D8E368AD
:10547000072B44D0A268DB0643EA8273226943EA21
:10548000024362691343EA6E616842F821300020EA
:10549000C9E740F235713E48FBF782FACBE740F2AC
:1054A00036713B48FBF77CFAC8E7A3693F2B08D865
:1054B000E369012BC5D940F23A713548FBF770FA20
:1054C000BFE740F239713248FBF76AFAF0E74FF470
:1054D000E8612F48FBF764FABBE740F241712C48C2
:1054E000FBF75EFAB9E740F244712948FBF758FA36
:1054F000BAE740F245712648FBF752FAB7E722694E
:10550000E3691B0243EA0243A269134343F0605379
:10551000B9E76268EB6B013B9A421FD82369B3F18C
:10552000005F21D2E368072B06D06369B3F1005F07
:1055300020D2A368032B23D8E268236943EA42738D
:10554000072A23D0A168626942EA8172296F6068E4
:1055500001EBC00441F83030626098E740F26171BD
:105560000B48FBF71DFAD9E740F262710848FBF7D8
:1055700017FAD7E740F265710548FBF711FAD8E74B
:1055800040F266710248FBF70BFAD5E7A269DDE746
:1055900000A3000890F89830DBB2012B07D0D0F8B8
:1055A0009C3043F00403C0F89C3001207047022374
:1055B00080F898300268936923F001039361002317
:1055C000C0F89C30184670472DE9F04105460F465B
:1055D00014461E4690F898805FFA88F888494FF480
:1055E0008070FBF76BF9B8F1020F40F0FA80854943
:1055F0004FF48070FBF762F9402F38D0412F79D0FB
:105600002B6DBB4240F2B180EA6F6B6D07FB03F379
:1056100002EB83020020136803F080436360002BD9
:1056200040F0B0801368C3F38A432360136803F02B
:105630000053A360136803F0004323619388E36180
:10564000536803F47023E360536803F480136361C9
:10565000536803F40013A361D37903F07F0323623B
:105660005368DB0F636208324FF0000C95E02B6843
:10567000D3F8A02012F4FE0F18D0D3F8A42012F013
:105680007F0F20D0D3F8A430C3F3006013F0807FE5
:1056900026D12B68D3F8A430C3F3052318446A6FCE
:1056A0006B6C00FB03F302EB8302B4E7D5F89C308C
:1056B00043F02003C5F89C3053494FF48070FBF74A
:1056C000FDF8012099E0D5F89C3043F48073C5F8CB
:1056D0009C304E494FF48070FBF7F0F801208CE0CD
:1056E0004B494FF48070FBF7E9F82B68D3F8A030F2
:1056F0000020CEE72B68D3F8B02012F4FE0F1AD0AA
:10570000D3F8B42012F07F0F22D0D3F8B420C2F324
:10571000006012F0807F02D0D3F8B0200020D3F8D0
:10572000B430C3F305231844AA6FEB6C00FB03F3FA
:1057300002EB83026FE7D5F89C3043F02003C5F8F5
:105740009C3031494FF48070FBF7B8F8012054E0E9
:10575000D5F89C3043F48073C5F89C302B494FF446
:105760008070FBF7ABF8012047E0D5F89C3043F0A0
:105770002003C5F89C3024494FF48070FBF79EF855
:1057800001203AE0136823F0604323604EE712F8EB
:105790000C3006F80C300CF1010CE3891D49CB5C90
:1057A0006345F4D8402F0AD0412F0DD01F2F0FD8BA
:1057B0002A68012303FA07F7C2F8987002E02B6801
:1057C000C3F8A800002018E02B68C3F8B800F9E778
:1057D00007F01F072A68012303FA07F7C2F89C7035
:1057E000F0E7D5F89C3043F00803C5F89C300A492F
:1057F0004FF48070FBF762F80120BDE8F08100BF34
:1058000000A500081CA500084CA500087CA5000800
:10581000B4A50008C0A70008E0A50008F8B5064632
:105820000D46174690F89840E4B211F4401F15D188
:1058300037494FF48070FBF741F8013CE4B2012C8A
:1058400012D9D6F89C3043F00203C6F89C30314997
:105850004FF48070FBF732F80120F8BD41F2DF31E0
:105860002D48FBF79DF8E3E72C494FF48070FBF7D8
:1058700025F833689A6D2A421DD09A6D35EA0202E6
:1058800023D00322DA6526494FF48070FBF716F81F
:1058900015F4007F23D115F4806F2CD131684B6D46
:1058A000204A2A4013434B651F4B596941EA9575BD
:1058B0005D610020D1E7DA6D42F00102DA651B4933
:1058C0004FF48070FAF7FAFFE2E7DA6D42F0020275
:1058D000DA6517494FF48070FAF7F0FFD8E73268BD
:1058E000D2F8E0303B43C2F8E03012494FF4807008
:1058F000FAF7E4FFCFE73368D3F8E4203A43C3F87C
:10590000E4200D494FF48070FAF7D8FFC6E700BFD6
:1059100018A6000884A7000800A300083CA60008F9
:10592000D0A60008FFFFCF3F00A8004060A60008F7
:1059300098A6000810A7000848A700082DE9F0471E
:105940000446934B1A695B694FEA837A0AEA827AC2
:1059500003681A6D02F470495A6D09EA02091A6D5A
:1059600002F00F085A6D08EA02081F6D07F0F007F1
:105970005A6D17401D6D05F071555A6D15401E6D1D
:1059800006F060765B6D1E4082494FF48070FAF736
:1059900095FF23685A6D12F4807F0DD01A6D12F4B2
:1059A000807F09D04FF480721A65794B00221A610A
:1059B000D4F8C0302046984723685A6D12F4806F9F
:1059C00012D01A6D12F4806F0ED0D3F8DC10D3F819
:1059D000E4204FF4806018656D4B00201861D4F806
:1059E000B830114020469847BAF1000F0BD0236819
:1059F00000221A654FEA9A72654B1A61D4F8A030FA
:105A0000514620469847B9F1000F0BD02368C3F8E0
:105A100050904FEA99725E4B1A61D4F8A43049460F
:105A200020469847B8F1000F0BD02368C3F8508088
:105A30004FEA9872564B1A61D4F8A8304146204676
:105A400098474FB123681F65BA0F514B1A61D4F8BC
:105A5000AC3039462046984723685A6D12F4006FDF
:105A60000DD01A6D12F4006F09D04FF400621A6560
:105A7000474B00221A61D4F8B0302046984723687B
:105A80005A6D12F4007F12D01A6D12F4007F0ED0FE
:105A9000D3F8D810D3F8E0204FF4007018653C4BD1
:105AA00000201861D4F8B43011402046984723688C
:105AB0005A6D12F4002F0DD01A6D12F4002F09D078
:105AC0004FF400221A65324B00221A61D4F8BC3020
:105AD0002046984723685A6D12F4803F0DD01A6D06
